{
    "contractName": "HelloWorld",
    "abi": [
        {
            "inputs": [],
            "stateMutability": "nonpayable",
            "type": "constructor"
        },
        {
            "inputs": [],
            "name": "greeting",
            "outputs": [
                {
                    "internalType": "string",
                    "name": "",
                    "type": "string"
                }
            ],
            "stateMutability": "view",
            "type": "function"
        },
        {
            "inputs": [],
            "name": "hello",
            "outputs": [
                {
                    "internalType": "string",
                    "name": "",
                    "type": "string"
                }
            ],
            "stateMutability": "view",
            "type": "function"
        },
        {
            "inputs": [
                {
                    "internalType": "string",
                    "name": "_greeting",
                    "type": "string"
                }
            ],
            "name": "setGreeting",
            "outputs": [],
            "stateMutability": "nonpayable",
            "type": "function"
        }
    ],
    "bytecode": "608060405234801561001057600080fd5b5060408051808201909152601f8082527f48656c6c6f20576f726c642066726f6d204c6561726e20457468657265756d0060209092019182526100559160009161005b565b506100fc565b828054600181600116156101000203166002900490600052602060002090601f01602090048101928261009157600085556100d7565b82601f106100aa57805160ff19168380011785556100d7565b828001600101855582156100d7579182015b828111156100d75782518255916020019190600101906100bc565b506100e39291506100e7565b5090565b5b808211156100e357600081556001016100e8565b6103858061010b6000396000f3fe608060405234801561001057600080fd5b50600436106100415760003560e01c806319ff1d2114610046578063a4136862146100c3578063ef690cc01461016b575b600080fd5b61004e610173565b6040805160208082528351818301528351919283929083019185019080838360005b83811015610088578181015183820152602001610070565b50505050905090810190601f1680156100b55780820380516001836020036101000a031916815260200191505b509250505060405180910390f35b610169600480360360208110156100d957600080fd5b8101906020810181356401000000008111156100f457600080fd5b82018360208201111561010657600080fd5b8035906020019184600183028401116401000000008311171561012857600080fd5b91908080601f016020809104026020016040519081016040528093929190818152602001838380828437600092019190915250929550610209945050505050565b005b61004e610220565b60008054604080516020601f60026000196101006001881615020190951694909404938401819004810282018101909252828152606093909290918301828280156101ff5780601f106101d4576101008083540402835291602001916101ff565b820191906000526020600020905b8154815290600101906020018083116101e257829003601f168201915b5050505050905090565b805161021c9060009060208401906102ae565b5050565b6000805460408051602060026001851615610100026000190190941693909304601f810184900484028201840190925281815292918301828280156102a65780601f1061027b576101008083540402835291602001916102a6565b820191906000526020600020905b81548152906001019060200180831161028957829003601f168201915b505050505081565b828054600181600116156101000203166002900490600052602060002090601f0160209004810192826102e4576000855561032a565b82601f106102fd57805160ff191683800117855561032a565b8280016001018555821561032a579182015b8281111561032a57825182559160200191906001019061030f565b5061033692915061033a565b5090565b5b80821115610336576000815560010161033b56fea2646970667358221220ba1aad6b974a0a7703507932b9abcb1b7464370f2e857da9a1bce791dc47fb1464736f6c63430007040033",
    "sourcePath": "/home/ha/github/eth-helloworld/helloworld.sol",
    "compiler": {
        "name": "solc",
        "version": "0.7.4+commit.3f05b770"
    },
    "functionHashes": {
        "greeting()": "ef690cc0",
        "hello()": "19ff1d21",
        "setGreeting(string)": "a4136862"
    },
    "gasEstimates": {
        "creation": {
            "codeDepositCost": "180200",
            "executionCost": "infinite",
            "totalCost": "infinite"
        },
        "external": {
            "greeting()": "infinite",
            "hello()": "infinite",
            "setGreeting(string)": "infinite"
        }
    }
}